:100000001EC100004DC100004BC1000049C10000ED
:1000100047C1000045C1000043C1000041C10000CC
:100020003FC100000C94110A0C94110A0C94110A9F
:1000300037C1000035C1000033C1000031C10000EC
:100040002FC100002DC100002BC1000029C10000FC
:1000500027C1000025C1000023C100000C94C80B7B
:100060001FC100000C942F0F0C94650F19C10000E4
:1000700017C1000015C1000013C1000011C100002C
:100080000FC100000DC100000BC1000009C100003C
:1000900007C1000005C1000003C1000001C100004C
:1000A000FFC00000FDC00000FBC00000F9C0000060
:1000B000F7C00000F5C00000F3C00000F1C0000070
:1000C000EFC00000EDC00000EBC00000E9C0000080
:1000D000E7C00000E5C00000E3C00000E1C0000090
:1000E000DFC00000C903D503CB03CD03CF03D10389
:1000F000D303170D1A0D090D0D0D130D510D1E0D06
:10010000220D280D2C0D300D360D3A0D3E0D510DE2
:10011000440D480D4C0D00000A0B02090C0D0E0891
:1001200007030401000000000000000000000000C0
:1001300000000000000000000000000000000000BF
:10014000000012111000000000000000000000007C
:10015000000000000000000000000000010210206C
:1001600020080810204010204080020102010804ED
:100170000201010204081020408080402010080481
:1001800002018004020180402010080402010804DA
:10019000020101020408102040800102040810201E
:1001A0004080050505050705080808080202020247
:1001B0000A0A080804040404010101010101010103
:1001C0000303030303030303040707070C0C0C0CCE
:1001D0000C0C0C0C020202020606060606060606B7
:1001E0000B0B0B0B0B0B0B0B00002000230026004E
:1001F00029002C002F00320000010000030106013D
:10020000090100002200250028002B002E003100EB
:10021000340002010000050108010B01000021006B
:10022000240027002A002D003000330001010000C7
:10023000040107010A0118044404970F3B04112428
:100240001FBECFEFD1E2DEBFCDBF00E00CBF14E098
:10025000A0E0B2E0EAE8FCE200E00BBF02C00790D9
:100260000D92A63FB107D9F726E0A6EFB4E001C092
:100270001D92AB33B207E1F712E0CCE3D2E000E02D
:1002800006C022970109FE010BBF0E941612C63359
:10029000D10780E00807A9F70E9498110C94341642
:1002A000AFCE8130910511F461E003C0892B21F4B8
:1002B00060E08DE00C948B0D0895FC011582148292
:1002C000108A118A128A148A138A8AE090E097832E
:1002D00086831086118612861386148615861686E6
:1002E00017868AE292E0918380838AE092E093838A
:1002F00082830895AF92BF92CF92DF92EF92FF92E6
:100300000F931F930E94DA0CBC01882777FD80951C
:10031000982F1F921F9221E02F9320E92F93A12C59
:10032000B12C6501E12C14E0F12E00E010E020E09A
:1003300030E0A9010E9452110F900F900F900F9082
:10034000CB011F910F91FF90EF90DF90CF90BF9066
:10035000AF900895FC01608B84E00C948B0DFC0140
:10036000618B85E00C948B0DFC01628B86E00C9414
:100370008B0D0F93CF93DF93EC011D821C8260E005
:10038000E9DF60E0CE01EBDF60E0CE01EDDF1C8A4B
:100390001B8A26E040E052EC61E070E08AE995E0DB
:1003A0000E94CF0E40E855E260E070E081E195E008
:1003B0000E94110B88E095E017D54FE150E060E016
:1003C00070E088E095E074D56BE472E08AE995E02E
:1003D0000E9423106EE872E08AE995E00E941810EE
:1003E00082E095E0EDD5682F70E04AE050E08AE9C0
:1003F00095E00E94CE1069EA72E08AE995E00E94D9
:10040000181061E571E086EF94E0D6D2682F70E0B5
:100410004AE050E08AE995E00E94CE1064EC72E078
:100420008AE995E00E94181065E070E086EF94E09C
:10043000DED6682F70E04AE050E08AE995E00E943D
:10044000CE106FED72E08AE995E00E94181086EFF9
:1004500094E0DCD64AE050E0BC018AE995E00E94D5
:10046000F0106AEF72E08AE995E00E9418106AE0E5
:1004700070E086EF94E0D7D6682F70E04AE050E055
:100480008AE995E00E94CE1065E173E08AE995E083
:100490000E94181086EF94E0D5D64AE050E0BC01E7
:1004A0008AE995E00E94F01060E373E08AE995E044
:1004B0000E94181001E02FEF3FEF40E050E060E0B5
:1004C00086EF94E055D6682F70E04AE050E08AE964
:1004D00095E0DF91CF910F910C94CE104F925F92E7
:1004E0006F927F92AF92BF92CF92DF92EF92FF9284
:1004F0000F931F93CF93DF93EC01AA81BB811297D7
:10050000E0E0F0E0CF0102972D913D9126173707EB
:1005100039F4E881F981E80FF91F8081918143C0A6
:10052000AF012D913C911197329626173707ACF504
:100530001296ED90FC9013976E157F0574F5099057
:10054000D881C02DDE01A40FB51FAD90BC90CC2486
:10055000B7FCC094DC2C0027F7FC0095102F442733
:1005600037FD4095542F882777FD8095982FEC0F05
:10057000FD1F0190F081E02D2F01662457FC60944F
:10058000762C7F926F925F924F920E945211CB0114
:100590000F900F900F900F9006C0E231F10509F017
:1005A000B1CF80E090E0DF91CF911F910F91FF904C
:1005B000EF90DF90CF90BF90AF907F906F905F9063
:1005C0004F900895CF93DF93EC0160E0C3DE60E0CD
:1005D000CE01C5DE60E0CE01C7DE1C8A1B8A81E049
:1005E00090E09D838C83DF91CF910895CF93DF932B
:1005F000EC0160E0AFDE60E0CE01B1DE60E0CE0194
:10060000B3DE1C8A1B8A82E090E09D838C83DF919D
:10061000CF910895CF93DF93EC0160E09BDE60E023
:10062000CE019DDE60E0CE019FDE1C8A1B8A83E046
:1006300090E09D838C83DF91CF910895CF93DF93DA
:10064000EC0160E087DE60E0CE0189DE60E0CE0193
:100650008BDE0E94120C6C877D878E879F871C8A99
:100660001B8A84E090E09D838C83DF91CF91089575
:10067000DF92EF92FF920F931F93CF93DF93EC01E2
:100680000E94120C0C851D852E853F85601B710B09
:10069000820B930B688779878A879B8786E390E034
:1006A00029DE8C0187E390E025DED82E68857985E8
:1006B0008A859B8528EE33E040E050E00E94C81117
:1006C000B901CE010BDF7C010817190711F460E0B6
:1006D00004C0081719072CF461E0CE013BDE60E08E
:1006E00004C060E0CE0136DE61E0CE0138DE61E0BC
:1006F000CE013ADE1C8A1B8A4E2D60E086EF94E024
:10070000E6D4402F61E086EF94E0E1D44D2D62E025
:1007100086EF94E0DF91CF911F910F91FF90EF90C2
:10072000DF90D5C4CF93DF93EC0160E013DE60E08F
:10073000CE0115DE60E0CE0117DE1C8A1B8A86E042
:1007400090E09D838C83DF91CF910895CF93DF93C9
:10075000EC0160E0FFDD60E0CE0101DE60E0CE0193
:1007600003DE1C8A1B8A81E090E09D838C83DF91ED
:10077000CF9108950F931F93CF93DF93EC010C81DA
:100780001D810730110588F4F801EE58FF4F0C94D5
:10079000061218DF0BC03EDF09C050DF07C068DF5C
:1007A00005C0C0DF03C0D2DF01C020DF88E095E0D4
:1007B00018D28C819D810817190779F16BE473E0D9
:1007C0008AE995E00E9418100E94120CAB01BC014E
:1007D0002AE030E08AE995E00E94E4106DE473E0DD
:1007E0008AE995E00E9418104AE050E0B8018AE9D1
:1007F00095E00E94C71065E573E08AE995E00E94E4
:1008000018106C817D814AE050E08AE995E00E94F1
:10081000C7108AE995E00E94201064E670E080E04D
:1008200090E00E94410CDF91CF911F910F910895AC
:100830000F931F9320E04EE06FE081E195E0C3D677
:1008400041E061E175E088E095E0B8D107E513E0AB
:1008500020E047E068E075E082E095E0ABD302E697
:1008600013E022E047E068E075E086EF94E0F8D31B
:100870001F910F91089581E195E051C680E395E0C5
:1008800078CD80E395E076CF80E395E016CDFB014F
:1008900020813181FC01318320830895CF93DF9340
:1008A000EC016623E1F04423E1F0E881F981369719
:1008B0000190F081E02DE80FF91F6481758180813E
:1008C0009181ADD2E881F98136970190F081E02DD8
:1008D000EC0FFD1F80819181DF91CF915CC280E0A0
:1008E00001C081E0DF91CF9108950F93CF93DF9303
:1008F000EC01E881F9813697808191818C0F9D1FF1
:100900008BD0402F682FCE01DF91CF910F91C6CFB2
:100910009B01DC011296ED91FC911397309719F031
:10092000BA01C90119940895FC01CA01DB012D9196
:100930003C913183208313821282BF01BEC1CF93C9
:10094000DF93DC01ED91FC91119736970190F081D6
:10095000E02DE80FF91F8281681328C083814813B6
:1009600025C0222391F0213009F512968D919C919A
:1009700013970097E9F0EC01E881F9810190F0818B
:10098000E02DAD0161E070E00FC012968D919C9159
:100990001397009769F0EC01E881F9810190F081EB
:1009A000E02DAD0160E070E0199502C080E001C06B
:1009B00081E0DF91CF9108950F931F93CF93DF9341
:1009C000EC018B0161157105A9F08A819B81892B4E
:1009D00011F01B821A8284E090E00E94A41122E7A9
:1009E00033E0FC0131832083138302839B838A835A
:1009F00081E001C080E0DF91CF911F910F910895B8
:100A00000F931F93FC0171836083428323831583BB
:100A100004831F910F910895AF92BF92CF92DF92FE
:100A2000EF92FF920F931F93CF93DF93CDB7DEB773
:100A30008C01CDB6DEB6FC01B480A580AB2DBA2DFD
:100A4000FD0101900020E9F73197EA1BFB0BDB0168
:100A50000D900020E9F71197A61BB70BEA0FFB1FBB
:100A600038968DB79EB78E1B9F0B0FB6F8949EBF1E
:100A70000FBE8DBF01967C015F934F933F932F93E1
:100A80007F936F93AF92BF9284E793E09F938F938E
:100A9000FF93EF93FF92EF920E946413B701F80166
:100AA0008081918130D1F8018081918174D12DB7FD
:100AB0003EB7225F3F4F0FB6F8943EBF0FBE2DBF2B
:100AC0000FB6F894DEBE0FBECDBEDF91CF911F9161
:100AD0000F91FF90EF90DF90CF90BF90AF9008956F
:100AE000CF92DF92EF92FF920F931F93CF93DF93FA
:100AF00000D01F92CDB7DEB77C010DB71EB7FC0149
:100B000024813581D901FD0101900020E9F7319759
:100B1000EA1BFB0BDB010D900020E9F71197A61BE8
:100B2000B70BEA0FFB1F37968DB79EB78E1B9F0B37
:100B30000FB6F8949EBF0FBE8DBF01966C017F93D8
:100B40006F933F932F938EE793E09F938F93FF9341
:100B5000EF93DF92CF920E946413B601F701808178
:100B60009181D1D0BE016F5F7F4FF701808191816C
:100B7000D7D12DB73EB7265F3F4F0FB6F8943EBF93
:100B80000FBE2DBF882329F069817A818B819C81DA
:100B900003C060E070E0CB010FB6F8941EBF0FBE3B
:100BA0000DBF0F900F900F900F90DF91CF911F917D
:100BB0000F91FF90EF90DF90CF9008950F931F93C8
:100BC000FC017183608304EF11E020E030E00283D8
:100BD0001383248335834683108617821F910F91D8
:100BE00008950F931F93CF93DF93EC018881998130
:100BF000DC01ED91FC910480F581E02D199518162A
:100C000019060CF055C088819981DC01ED91FC91A9
:100C10000680F781E02D1995182F853639F76AE09F
:100C200070E080E090E02DD688819981DC01ED9123
:100C3000FC910480F581E02D19950697BCF2109384
:100C4000450506E415E088819981DC01ED91FC9170
:100C50000680F781E02D1995F80181938F01F5E069
:100C60000C341F0781F710924C05809149058F3F86
:100C700009F0BCCF80914A058F3F09F0B7CF809132
:100C80004B058F3F09F0B2CF0F8118850115110573
:100C900009F4ACCF20914805409147056091460585
:100CA000D8018D919C914BDEF80102811381EECF2A
:100CB000DF91CF911F910F9108950F931F93CF93C1
:100CC000DF93EC018B0184E090E00E94A411DC0131
:100CD00011961C930E9313961C921E921297EF81FD
:100CE000F885309719F498878F8308C082819381A3
:100CF000009711F0FC01FACFB383A283DF91CF916B
:100D00001F910F9108950F931F93CF93DF931F921D
:100D10001F92CDB7DEB78C01DC0116968C91169729
:100D2000882369F08D919C91DC01ED91FC91028406
:100D3000F385E02D69837A8319957A816981F801B9
:100D4000808191810E941810D8018D919C91DC01C5
:100D5000ED91FC910190F081E02D6FEF1995F80174
:100D600080819181DC01ED91FC910190F081E02D79
:100D70006FEF1995F80180819181DC01ED91FC9173
:100D80000190F081E02D6FEF0F900F90DF91CF91E8
:100D90001F910F911994CF93DF9300D01F92CDB77D
:100DA000DEB719821A821B821C8244E050E0BE0129
:100DB0006F5F7F4FFC01808191810E94301189819A
:100DC000813051F48A818F3F39F48B818F3F21F438
:100DD00081E09C819F3F09F080E00F900F900F9081
:100DE0000F90DF91CF9108951F93CF93DF93EC0184
:100DF00067EE74E088DF6AE973E0CE0184DFCE013C
:100E0000CADF182F62EA73E0CE017DDFCE01C3DFB7
:100E1000111101C080E0DF91CF911F910895CF9211
:100E2000DF92EF92FF920F931F93CF93DF93CDB793
:100E3000DEB77C01CDB6DEB6FB0101900020E9F7FC
:100E4000E61BF70B33962DB73EB72E1B3F0B0FB6A5
:100E5000F8943EBF0FBE2DBF0DB71EB70F5F1F4FDB
:100E60007F936F938FEA93E09F938F93FF93EF931A
:100E70001F930F930E946413B801C70144DFC70199
:100E80008ADF2DB73EB7285F3F4F0FB6F8943EBFBD
:100E90000FBE2DBF0FB6F894DEBE0FBECDBEDF91E4
:100EA000CF911F910F91FF90EF90DF90CF90089519
:100EB000EF92FF920F931F93CF93DF93CDB7DEB7DF
:100EC00029970FB6F894DEBF0FBECDBF7C017F938C
:100ED0006F935F934F9385ED93E09F938F931F9252
:100EE00089E08F938E010F5F1F4F1F930F930E9416
:100EF0006413B801C70107DFC7014DDF0FB6F894CF
:100F0000DEBF0FBECDBF29960FB6F894DEBF0FBE71
:100F1000CDBFDF91CF911F910F91FF90EF9008957A
:100F20000F931F93CF93DF93CDB7DEB728970FB6FC
:100F3000F894DEBF0FBECDBF8B01BE016F5F7F4F48
:100F400028E0FB0111922A95E9F70115110511F42A
:100F500080E025C048E050E0FC01808191810E9442
:100F600030110897A9F78981813791F78E818F3FDA
:100F700079F78F818F3F61F788858F3F49F78B81A4
:100F800090E0982F88272A81822BAA2797FDA09589
:100F9000BA2FF80180839183A283B38381E02896DE
:100FA0000FB6F894DEBF0FBECDBFDF91CF911F917A
:100FB0000F9108950F931F9323DD1F910F910895B3
:100FC000CF92DF92EF92FF920F931F93CF93DF9315
:100FD000CDB7DEB78C01CDB6DEB6FC01848195813C
:100FE000DC01FD0101900020E9F7EA1BFB0B3596BF
:100FF0002DB73EB72E1B3F0B0FB6F8943EBF0FBE6A
:101000002DBF2F5F3F4F79019F938F938EE794E021
:101010009F938F93FF93EF93FF922F930E946413FC
:10102000B701F801808191816EDEF80180819181A4
:10103000B2DE2DB73EB7285F3F4F0FB6F8943EBFE4
:101040000FBE2DBF0FB6F894DEBE0FBECDBEDF9132
:10105000CF911F910F91FF90EF90DF90CF90089567
:101060008F929F92AF92BF92CF92DF92EF92FF92B8
:101070000F931F93CF93DF93EC016B01942E822E7D
:1010800058010696BDDC7501082D292DA60163EBDC
:1010900074E0CE0149DC292DA60165EB74E0CE0198
:1010A0000496F5DB8FEB94E09983888385EC94E0DC
:1010B0009D838C83DF91CF911F910F91FF90EF90D3
:1010C000DF90CF90BF90AF909F908F900895EF9258
:1010D000FF920F931F93CF93DF93CDB7DEB7669741
:1010E0000FB6F894DEBF0FBECDBF8C01643090F513
:1010F0001F924F931F926F93DC01ED91FC913697F5
:101100000190F081E02DE80FF91F83811F928F93EA
:1011100086E894E09F938F931F9286E18F93CE0190
:1011200001967C01FF928F930E946413D801ED9188
:10113000FC9136970190F081E02DE00FF11FB7018F
:1011400080819181E0DD0FB6F894DEBF0FBECDBF88
:1011500081E001C080E066960FB6F894DEBF0FBE56
:10116000CDBFDF91CF911F910F91FF90EF90089528
:10117000CF92DF92EF92FF920F93CF93DF93CDB791
:10118000DEB729970FB6F894DEBF0FBECDBF6C0156
:101190001F926F9383E994E09F938F931F9285E052
:1011A0008F93CE0101967C01FF928F932E833F8314
:1011B000488759870E9464132E813F81488559854D
:1011C000B701C601049691DB0FB6F894DEBF0FBEDF
:1011D000CDBF29960FB6F894DEBF0FBECDBFDF910D
:1011E000CF910F91FF90EF90DF90CF9008959B01EA
:1011F00040E050E0DC01ED91FC9136970190F081E8
:10120000E02D6DE974E08E0F9F1F06CCDC01ED919F
:10121000FC913697208131816DE974E0820F931F34
:101220005FDCCB0108959B0140E050E0DC01ED91D3
:10123000FC9136970190F081E02D61EA74E08E0F09
:101240009F1FEACBDC01ED91FC9136972081318123
:1012500061EA74E0820F931F43DCCB010895209173
:101260008F053091900528173907B9F490914D05F5
:1012700080914E05981789F0E0914D05F0E0E15B13
:10128000FA4F808120914D0530E02F5F3F4F2F7343
:10129000332720934D0590E008958FEF9FEF089539
:1012A0001F93CF93DF93DC015C968D919C915D97AA
:1012B000009749F481E090E013969C938E931297E7
:1012C00080E090E03BC05196ED91FC915297509692
:1012D0002C915097322F30951FB75E964C915E97A8
:1012E00041FB772770F941FD6095F89440817723A1
:1012F00011F0422B01C043234083EC012197F1F709
:1013000048E0508160FF02C0522B01C0532350833C
:10131000EC012197F1F76695415099F78081772389
:1013200011F0832301C0822B80831FBF5C968D91B7
:101330009C915D970197F1F781E090E0DF91CF916B
:101340001F910895089520918F05309190052817D9
:10135000390781F490914D0580914E05981751F011
:10136000E0914D05F0E0E15BFA4F8081992787FD20
:10137000909508958FEF9FEF089520918F053091FC
:1013800090052817390761F480914E0520914D058D
:1013900090E0805C9F4F821B910960E470E0E5C79C
:1013A00080E090E00895E0918F05F0919005E817B6
:1013B000F90769F4A389B4899C918589809589236B
:1013C0008C931092900510928F0581E0089580E033
:1013D0000895CF93DF93EC018A8D9B8D892BE9F0E3
:1013E00080918F05909190058C179D07B1F0009723
:1013F00009F0D9DF8E8D8E7F8E8F10924E05109260
:101400004D05D0939005C0938F05EB89FC898081B1
:101410009D89892B808381E001C080E0DF91CF919D
:1014200008951F920F920FB60F9211240BB60F92D0
:101430002F933F934F935F936F937F938F939F93DC
:10144000AF93BF93EF93FF93E0918F05F0919005D9
:10145000309709F451C0868DA685B785958581FFA3
:1014600004C08C91892329F447C08C91892309F009
:1014700043C0A389B4899C918589809589238C93E5
:10148000868997890197F1F7208D318DA685B785DB
:10149000758558E040E0C9010197F1F7842F90E08D
:1014A00095958795482F6C91672309F040685150B6
:1014B00091F7868D81FD409580914E0590E00196D3
:1014C0008F73992720914D05281749F0A0914E055B
:1014D000B0E0A15BBA4F4C9380934E0503C0868D5C
:1014E0008160868F828D938D0197F1F7A389B489EE
:1014F0008C919589892B8C93FF91EF91BF91AF913E
:101500009F918F917F916F915F914F913F912F911B
:101510000F900BBE0F900FBE0F901F90189529ECE7
:1015200034E0FC01318320833ECF1F93CF93DF93C0
:10153000EC01162F6E8D6695617081E06827812F12
:10154000EAD261E0812FAED2812F90E0FC01E45A13
:10155000FE4FE491E88BFC01EE55FE4FE491F0E084
:10156000EE0FFF1FEE5FFD4F859194919A8B898B53
:10157000DF91CF911F9108951F93CF93DF93EC01DB
:10158000162F60E0812F8ED28E8D81FD03C061E029
:10159000812FC1D21C87812F90E0FC01E45AFE4FBD
:1015A000E491ED87FC01EE55FE4FE491F0E0EE0F83
:1015B000FF1FE851FE4F859194919F878E87DF91A1
:1015C000CF911F910895FF920F931F93CF93DF93B5
:1015D000EC01F62E522F1B821A8208EE13E020E057
:1015E00030E00C831D832E833F8389EC94E0998344
:1015F00088831F8A1E8A198E188E1B8E1A8E1D8E46
:101600001C8E8E8D8E7F50FB81F98E8F642FCE01C4
:101610008CDF6F2DCE01DF91CF911F910F91FF9045
:10162000ABCF0F931F93CF93DF93EC019A01AB01E4
:101630001B8E1A8E198E188E1F8A1E8A60E079E022
:101640008DE390E0C7D6C9012430310520F0B901FF
:101650006350710902C061E070E07D8F6C8F1C8562
:1016600006EF010F043048F06EEC610F643028F093
:1016700062EC610F683008F07DC0B901769567951E
:101680006431710518F06351710902C061E070E0C6
:101690007F8B6E8B069718F0C901059702C081E019
:1016A00090E0998F888FC901880F991F820F931F2F
:1016B00096958795969587958D30910510F00C97A6
:1016C00002C081E090E09B8F8A8F043060F08EEC46
:1016D000810F843040F082EC810F883008F050C0D8
:1016E000A8E6B0E04FC0A8E6B0E0E8E6F0E0908100
:1016F000043028F01E53183010F484E001C081E05B
:10170000892B8C932C8536EF320F343058F08EECC9
:10171000820F843038F082EC820F883030F48DE60E
:1017200090E005C08BE690E002C080E090E09C8BEA
:101730008B8B343010F426500BC0223379F02333D6
:1017400079F0243379F082EC820F883068F4282F06
:1017500081E001C0880F2A95EAF707C088E005C03C
:1017600084E003C082E001C081E08D8B8C8D9D8D73
:101770000197F1F7CE01DF91CF911F910F9129CE03
:10178000A0E0B0E0883008F4B0CFE0E0F0E0AFCF08
:101790001F920F920FB60F9211242F933F938F93A6
:1017A0009F93AF93BF938091920590919305A091E1
:1017B0009405B09195053091910523E0230F2D37C5
:1017C00020F40196A11DB11D05C026E8230F029645
:1017D000A11DB11D209391058093920590939305CF
:1017E000A0939405B09395058091960590919705E7
:1017F000A0919805B09199050196A11DB11D809306
:10180000960590939705A0939805B0939905BF917D
:10181000AF919F918F913F912F910F900FBE0F909D
:101820001F9018952FB7F8946091920570919305C9
:1018300080919405909195052FBF08953FB7F89436
:101840008091960590919705A0919805B091990582
:1018500026B5A89B05C02F3F19F00196A11DB11D0B
:101860003FBF6627782F892F9A2F620F711D811D28
:10187000911D42E0660F771F881F991F4A95D1F787
:1018800008958F929F92AF92BF92CF92DF92EF9284
:10189000FF926B017C01D2DF4B015C01C114D104CA
:1018A000E104F104E1F051D5C9DF681979098A0929
:1018B0009B09683E73408105910580F321E0C21ABF
:1018C000D108E108F10888EE880E83E0981EA11C7B
:1018D000B11CC114D104E104F10431F7DFCFFF9052
:1018E000EF90DF90CF90BF90AF909F908F90089532
:1018F000789484B5826084BD84B5816084BD85B5EB
:10190000826085BD85B5816085BDEEE6F0E08081B1
:1019100081608083E1E8F0E01082808182608083D2
:10192000808181608083E0E8F0E080818160808355
:10193000E1EBF0E0808184608083E0EBF0E0808187
:1019400081608083E1E9F0E0808182608083808132
:1019500081608083E0E9F0E0808181608083E1EA5A
:10196000F0E0808182608083808181608083E0EA12
:10197000F0E0808181608083E1E2F1E0808182603B
:101980008083808181608083E0E2F1E080818160FA
:101990008083EAE7F0E080818460808380818260D8
:1019A00080838081816080838081806880831092C1
:1019B000C1000895863308F0865320917B00982F4C
:1019C0009870277F922B90937B00877020914A021A
:1019D00090E4299F90011124822B80937C008091B8
:1019E0007A00806480937A0080917A0086FDFCCF33
:1019F000809178002091790090E0922B089590E0FA
:101A0000FC013197E231F10508F04BC0E758FF4F78
:101A1000FDC4809180008F7703C0809180008F7D0E
:101A200080938000089580918000877FF9CF84B5EE
:101A30008F7702C084B58F7D84BD08958091B000FA
:101A40008F7703C08091B0008F7D8093B0000895A0
:101A5000809190008F7707C0809190008F7D03C0A8
:101A600080919000877F8093900008958091A000DE
:101A70008F7707C08091A0008F7D03C08091A00068
:101A8000877F8093A0000895809120018F7707C001
:101A9000809120018F7D03C080912001877F8093FA
:101AA00020010895CF93DF9390E0FC01E45AFE4FAC
:101AB0002491FC01EE55FE4F8491882349F190E07A
:101AC000880F991FFC01E45EFD4FA591B4918E5FD4
:101AD0009D4FFC01C591D4919FB7611108C0F89446
:101AE0008C91209582238C93888182230AC0623056
:101AF00051F4F8948C91322F309583238C93888104
:101B0000822B888304C0F8948C91822B8C939FBF86
:101B1000DF91CF9108950F931F93CF93DF931F927F
:101B2000CDB7DEB7282F30E0F901EA5EFE4F849191
:101B3000F901E45AFE4F1491F901EE55FE4F04915C
:101B40000023C1F0882319F0698359DF6981E02FF0
:101B5000F0E0EE0FFF1FEE5FFD4FA591B4919FB730
:101B6000F8948C91611103C01095812301C0812BE1
:101B70008C939FBF0F90DF91CF911F910F9108958C
:101B8000FC01818D228D90E0805C9F4F821B91092A
:101B90008F7399270895FC01918D828D981731F0EC
:101BA000828DE80FF11D858D90E008958FEF9FEFF6
:101BB0000895FC01918D828D981761F0828DDF016F
:101BC000A80FB11D5D968C91928D9F5F9F73928F30
:101BD00090E008958FEF9FEF08958EE89FE0892BA6
:101BE00039F080E090E0892B19F098D1811125C05F
:101BF00080E090E0892B41F080E090E0892B21F09B
:101C00000E94000081111CC080E090E0892B41F00F
:101C100080E090E0892B21F00E940000811113C028
:101C200080E090E0892BA1F080E090E0892B81F0AA
:101C30000E94000081110AC008950E940000D8CFC0
:101C40000E940000E1CF0E940000EACF0C94000047
:101C50000895FC01848DDF01A80FB11DA35ABF4F69
:101C60002C91848D90E001968F739927848FA6899B
:101C7000B7892C93A089B1898C9180648C93938DC2
:101C8000848D981306C00288F389E02D80818F7DB2
:101C900080830895CF93DF93EC01888D8823C1F072
:101CA000EA89FB89808185FD05C0A889B9898C9165
:101CB00086FD0EC00FB607FCF5CF808185FFF2CF01
:101CC000A889B9898C9185FFEDCFCE01C2DFE8CF1D
:101CD000DF91CF910895CF92DF92FF920F931F93E0
:101CE000CF93DF931F92CDB7DEB76C0181E0D601B1
:101CF00058968C9358975B969C915B975C968C91C9
:101D00005C97981307C05096ED91FC915197808194
:101D100085FD2DC0F601038D10E00F5F1F4F0F737F
:101D20001127F02EF601848DF81210C00FB607FCB3
:101D3000F9CFD6015096ED91FC915197808185FFA6
:101D4000F1CFC601698385DF6981ECCF838DE80F10
:101D5000F11DE35AFF4F6083D6015B960C935B97AE
:101D60005296ED91FC915397808180620CC0D60110
:101D70005696ED91FC91579760835096ED91FC91AA
:101D8000519780818064808381E090E00F90DF91A3
:101D9000CF911F910F91FF90DF90CF900895BF9248
:101DA000CF92DF92EF92FF92CF93DF93EC016A0123
:101DB0007B01B22EE889F98982E08083411581EEAA
:101DC00058076105710599F060E079E08DE390E0D6
:101DD000A7019601DDD221503109410951095695DB
:101DE000479537952795211580E1380790F0E889C8
:101DF000F989108260E874E88EE190E0A70196010D
:101E0000C7D2215031094109510956954795379557
:101E10002795EC85FD853083EE85FF852083188E20
:101E2000EC89FD89B082EA89FB89808180618083A9
:101E3000EA89FB89808188608083EA89FB898081C7
:101E400080688083EA89FB8980818F7D8083DF9130
:101E5000CF91FF90EF90DF90CF90BF9008951F92A9
:101E60000F920FB60F9211240BB60F922F938F93F0
:101E70009F93EF93FF93E091AA05F091AB058081CA
:101E8000E091B005F091B10582FD12C09081809182
:101E9000B3058F5F8F732091B405821751F0E091E5
:101EA000B305F0E0E656FA4F958F8093B30501C075
:101EB0008081FF91EF919F918F912F910F900BBE99
:101EC0000F900FBE0F901F9018951F920F920FB694
:101ED0000F9211240BB60F922F933F934F935F9362
:101EE0006F937F938F939F93AF93BF93EF93FF93E2
:101EF0008AE995E0AEDEFF91EF91BF91AF919F919E
:101F00008F917F916F915F914F913F912F910F90A2
:101F10000BBE0F900FBE0F901F9018958AE995E0A9
:101F20002FDE21E0892B09F420E0822F0895109202
:101F30009D0510929C0588EE93E0A0E0B0E08093B0
:101F40009E0590939F05A093A005B093A10589EDF0
:101F500094E090939B0580939A0585EC90E0909394
:101F6000A7058093A60584EC90E09093A905809343
:101F7000A80580EC90E09093AB058093AA0581ECD6
:101F800090E09093AD058093AC0582EC90E0909347
:101F9000AF058093AE0586EC90E09093B1058093F9
:101FA000B0051092B3051092B4051092B5051092C9
:101FB000B6050895CF92DF92EF92FF920F931F9391
:101FC000CF93DF937C016A01EB0100E010E00C1578
:101FD0001D0571F06991D701ED91FC910190F0819F
:101FE000E02DC7011995892B19F00F5F1F4FEFCF17
:101FF000C801DF91CF911F910F91FF90EF90DF907B
:10200000CF9008956115710581F0DB010D900020DE
:10201000E9F7AD0141505109461B570BDC01ED9129
:10202000FC910280F381E02D199480E090E0089506
:10203000E9CFDC01ED91FC910190F081E02D199444
:1020400065EE74E0DFCF0F931F93CF93DF93EC0126
:10205000D9DF8C01CE01F4DF800F911FDF91CF918A
:102060001F910F9108958F929F92AF92BF92DF922E
:10207000EF92FF920F931F93CF93DF93CDB7DEB70D
:10208000A1970FB6F894DEBF0FBECDBF7C01F42F31
:10209000D52ECB0119A2223008F42AE08E010F5D63
:1020A0001F4F822E912CA12CB12C6F2F7D2DA501BD
:1020B00094016ED1F22FD32ECA01015011096A305A
:1020C00014F4E0E301C0E7E3E60FD801EC93232B1F
:1020D000242B252B51F7B801C70194DFA1960FB629
:1020E000F894DEBF0FBECDBFDF91CF911F910F914E
:1020F000FF90EF90DF90BF90AF909F908F900895EA
:10210000CF92DF92EF92FF920F931F93CF93DF93C3
:10211000EC016A017B012115310579F4E881F9812F
:102120000190F081E02D642FDF91CF911F910F91ED
:10213000FF90EF90DF90CF9019942A303105D9F4B9
:1021400077FF18C06DE275DF8C0144275527BA016F
:102150004C195D096E097F092AE0CE0184DF800FEA
:10216000911FDF91CF911F910F91FF90EF90DF9022
:10217000CF9008952AE0B701A601CE01DF91CF915B
:102180001F910F91FF90EF90DF90CF906CCF9A014D
:10219000AB01662757FD6095762FB2CF0F931F9343
:1021A000CF93DF93EC019A01AB01662757FD609551
:1021B000762FA6DF8C01CE0143DF800F911FDF91C8
:1021C000CF911F910F9108952115310541F4DC0144
:1021D000ED91FC910190F081E02D642F199443CF93
:1021E0000F931F93CF93DF93EC019A01AB0160E053
:1021F00070E0EADF8C01CE0123DF800F911FDF91B9
:10220000CF911F910F9108950F931F93CF93DF9359
:10221000EC0108DB688779878A879B87E881F981E9
:102220000680F781E02DCE01199597FF14C0FADAE8
:10223000088519852A853B85601B710B820B930BE2
:102240000C811D812E813F816017710782079307E2
:1022500028F38FEF9FEFDF91CF911F910F9108959A
:10226000CF92DF92EF92FF920F931F93CF93DF9362
:102270007C016A01EB0100E010E00C151D0541F046
:10228000C701C2DF97FD04C089930F5F1F4FF5CFD1
:10229000C801DF91CF911F910F91FF90EF90DF90D8
:1022A000CF9008954F925F926F927F92AF92BF92BC
:1022B000CF92DF92EF92FF920F931F93CF93DF9312
:1022C000CDB7DEB729013A01621B730B840B950B66
:1022D0002A893B894C895D892A193B094C095D098A
:1022E0002A8B3B8B4C8B5D8B9B01AC016A897B8974
:1022F0008C899D892BD0E418F50806091709A801D7
:10230000970168D02A0D3B1D4C1D5D1DCA01B90106
:10231000DF91CF911F910F91FF90EF90DF90CF90C1
:10232000BF90AF907F906F905F904F900895089509
:10233000DFDAFDDF0E943E04CDEEDDE00E944104C5
:102340002097E1F34ADCFACF98C00895DB018F9320
:102350009F9362D0BF91AF91A29F800D911DA39FCB
:10236000900DB29F900D1124089597FB072E16F43F
:10237000009406D077FD08D05DD007FC05D03EF470
:10238000909581959F4F0895709561957F4F089521
:10239000A1E21A2EAA1BBB1BFD010DC0AA1FBB1F69
:1023A000EE1FFF1FA217B307E407F50720F0A21BDB
:1023B000B30BE40BF50B661F771F881F991F1A9448
:1023C00069F760957095809590959B01AC01BD0172
:1023D000CF010895052E97FB16F400940FD057FDFA
:1023E00005D0D6DF07FC02D046F408C050954095D2
:1023F000309521953F4F4F4F5F4F089590958095B1
:10240000709561957F4F8F4F9F4F0895EE0FFF1F7F
:102410000590F491E02D199421D0A59F900DB49FC3
:10242000900DA49F800D911D112408950790F691A1
:10243000E02D1994AA1BBB1B51E107C0AA1FBB1FAB
:10244000A617B70710F0A61BB70B881F991F5A9540
:10245000A9F780959095BC01CD010895A29FB00188
:10246000B39FC001A39F700D811D1124911DB29FC8
:10247000700D811D1124911D0895CF93DF9382303B
:10248000910510F482E090E0E0913906F0913A066F
:1024900020E030E0A0E0B0E0309739F14081518198
:1024A00048175907B8F04817590771F4828193818A
:1024B000109729F013969C938E9312972CC09093AB
:1024C0003A068093390627C02115310531F04217AD
:1024D000530718F0A901DB0101C0EF019A01BD010A
:1024E000DF010280F381E02DD7CF21153105F9F00E
:1024F000281B390B2430310580F48A819B816115BA
:10250000710521F0FB019383828304C090933A0606
:1025100080933906FE01329644C0FE01E20FF31F9C
:102520008193919322503109398328833AC02091B5
:10253000370630913806232B41F420910202309166
:102540000302309338062093370620910002309121
:1025500001022115310541F42DB73EB74091040227
:1025600050910502241B350BE0913706F091380697
:10257000E217F307A0F42E1B3F0B2817390778F05A
:10258000AC014E5F5F4F2417350748F04E0F5F1FB9
:1025900050933806409337068193919302C0E0E050
:1025A000F0E0CF01DF91CF910895CF93DF930097B3
:1025B00009F487C0FC01329713821282C091390658
:1025C000D0913A06209781F420813181280F391F5C
:1025D00080913706909138068217930779F5F0932A
:1025E0003806E09337066DC0DE0120E030E0AE171C
:1025F000BF0750F412964D915C9113979D014115C0
:10260000510509F1DA01F3CFB383A28340815181EF
:10261000840F951F8A179B0771F48D919C911197D8
:10262000840F951F02969183808312968D919C91C1
:102630001397938382832115310529F4F0933A0689
:10264000E09339063EC0D9011396FC93EE9312979E
:102650004D915D91A40FB51FEA17FB0779F48081B6
:102660009181840F951F0296D90111969C938E93A8
:102670008281938113969C938E931297E0E0F0E011
:102680008A819B81009719F0FE01EC01F9CFCE0100
:10269000029628813981820F931F2091370630914D
:1026A00038062817390769F4309729F410923A064A
:1026B0001092390602C013821282D0933806C0935A
:1026C0003706DF91CF9108950F931F93CF93DF9338
:1026D000CDB7DEB72E970FB6F894DEBF0FBECDBFD5
:1026E0000E891F89888D998D26E02C831A83098392
:1026F00097FF02C080E090E801979E838D83AE0132
:10270000445E5F4F6A8D7B8DCE01019619D04D815D
:102710005E8157FD0AC02F813885421753070CF49C
:102720009A01F801E20FF31F10822E960FB6F8946B
:10273000DEBF0FBECDBFDF91CF911F910F910895E6
:102740002F923F924F925F926F927F928F929F92C1
:10275000AF92BF92CF92DF92EF92FF920F931F93AF
:10276000CF93DF93CDB7DEB72C970FB6F894DEBFCB
:102770000FBECDBF7C016B018A01FC01178216825E
:10278000838181FFB0C1CE0101964C01F701938195
:10279000F60193FD859193FF81916F01882309F4E0
:1027A0009EC1853239F493FD859193FF81916F012C
:1027B000853221F4B70190E0C7D1E8CF512C312CFC
:1027C00020E02032A0F48B3269F030F4803259F0EE
:1027D000833269F420612CC08D3239F0803339F4B2
:1027E000216026C02260246023C0286021C027FD0C
:1027F00027C030ED380F3A3078F426FF06C0FAE0F3
:102800005F9E300D1124532E13C08AE0389E300D88
:102810001124332E20620CC08E3221F426FD5FC1BC
:10282000206406C08C3611F4206802C0883641F45A
:10283000F60193FD859193FF81916F018111C1CFC5
:10284000982F9F7D9554933028F40C5F1F4FFFE322
:10285000F9830DC0833631F0833771F0833509F089
:1028600057C021C0F801808189830E5F1F4F442427
:102870004394512C540114C03801F2E06F0E711CC6
:10288000F801A080B18026FF03C0652D70E002C072
:102890006FEF7FEFC5012C874CD12C0183012C8574
:1028A0002F77222E16C03801F2E06F0E711CF8014E
:1028B000A080B18026FF03C0652D70E002C06FEFDD
:1028C0007FEFC5012C872AD12C012C852068222E70
:1028D000830123FC19C0832D90E048165906A0F40B
:1028E000B70180E290E030D13A94F5CFF50127FCB2
:1028F000859127FE81915F01B70190E025D13110CC
:102900003A94F1E04F1A51084114510479F7DEC0AE
:10291000843611F0893631F5F80127FF07C0608150
:102920007181828193810C5F1F4F08C0608171812A
:10293000882777FD8095982F0E5F1F4F2F76B22E38
:1029400097FF09C090958095709561957F4F8F4F47
:102950009F4F2068B22E2AE030E0A40127D1A82E94
:10296000A81843C0853729F42F7EB22E2AE030E024
:1029700025C0F22FF97FBF2E8F36C1F018F48835AD
:1029800079F0ADC0803719F0883721F0A8C02F2F1B
:102990002061B22EB4FE0DC08B2D8460B82E09C00C
:1029A00024FF0AC09F2F9660B92E06C028E030E0B1
:1029B00005C020E130E002C020E132E0F801B7FEBE
:1029C00007C060817181828193810C5F1F4F06C0B7
:1029D0006081718180E090E00E5F1F4FA401E6D01E
:1029E000A82EA818FB2DFF77BF2EB6FE0BC02B2DEF
:1029F0002E7FA51450F4B4FE0AC0B2FC08C02B2DE3
:102A00002E7E05C07A2C2B2D03C07A2C01C0752C8C
:102A100024FF0DC0FE01EA0DF11D8081803311F409
:102A2000297E09C022FF06C07394739404C0822FCC
:102A3000867809F0739423FD12C020FF06C05A2C3B
:102A4000731418F4530C5718732C731460F4B701F3
:102A500080E290E02C8778D073942C85F6CF7314A5
:102A600010F4371801C0312C24FF11C0B70180E3E6
:102A700090E02C8769D02C8522FF16C021FF03C06F
:102A800088E590E002C088E790E0B7010CC0822F93
:102A9000867851F021FD02C080E201C08BE227FD63
:102AA0008DE2B70190E050D0A51430F4B70180E377
:102AB00090E04AD05A94F8CFAA94F401EA0DF11D9F
:102AC0008081B70190E040D0A110F6CF332009F407
:102AD0005DCEB70180E290E037D03A94F7CFF701AE
:102AE0008681978102C08FEF9FEF2C960FB6F894E6
:102AF000DEBF0FBECDBFDF91CF911F910F91FF9031
:102B0000EF90DF90CF90BF90AF909F908F907F908D
:102B10006F905F904F903F902F900895FC0105902B
:102B2000615070400110D8F7809590958E0F9F1FCF
:102B30000895FC016150704001900110D8F7809514
:102B400090958E0F9F1F08950F931F93CF93DF9340
:102B5000182F092FEB018B8181FD03C08FEF9FEFB1
:102B600020C082FF10C04E815F812C813D814217C1
:102B700053077CF4E881F9819F012F5F3F4F398330
:102B80002883108306C0E885F985812F1995892B44
:102B900029F72E813F812F5F3F4F3F832E83812F67
:102BA000902FDF91CF911F910F910895FA01AA27DD
:102BB000283051F1203181F1E8946F936E7F6E5F80
:102BC0007F4F8F4F9F4FAF4FB1E03ED0B4E03CD02E
:102BD000670F781F891F9A1FA11D680F791F8A1F11
:102BE000911DA11D6A0F711D811D911DA11D20D078
:102BF00009F468943F912AE0269F11243019305D32
:102C00003193DEF6CF010895462F4770405D419322
:102C1000B3E00FD0C9F7F6CF462F4F70405D4A336F
:102C200018F0495D31FD4052419302D0A9F7EACF37
:102C3000B4E0A6959795879577956795BA95C9F766
:102C400000976105710508959B01AC010A2E069459
:102C50005795479537952795BA95C9F7620F731F12
:102C6000841F951FA01D089512E0CCE3D2E000E080
:102C700005C022970109FE010BBFD8DBCE33D10777
:0A2C800080E00807B1F7F894FFCFD9
:102C8A0000003B0680000100000000000A0014005A
:102C9A001E00F00040017C01B801080258026202DD
:102CAA006C02000000000000000019001E00230052
:102CBA0028002D00320037003C0041004600000089
:102CCA0000000000000000000000010A23094B6F09
:102CDA00666669656272616E6465722056312E306D
:102CEA00206279205265696E2056656C74202D2009
:102CFA005468656F2773204D656368616E697363F5
:102D0A00686520416170202D203230313600236EF3
:102D1A00657874696F6E20706777617665666F7221
:102D2A006D2073686F773A2000236E657874696F37
:102D3A006E207365742063616C6C6261636B202022
:102D4A00203A2000236E657874696F6E2077617669
:102D5A0065666F726D206174746163683A2000233E
:102D6A006E657874696F6E20736574206772696422
:102D7A00776964746820203A2000236E6578746944
:102D8A006F6E206765742067726964776964746816
:102D9A0020203A2000236E657874696F6E2073656F
:102DAA00742067726964686569676874203A2000EC
:102DBA00236E657874696F6E20676574206772691F
:102DCA0064686569676874203A20002300095374AF
:102DDA006174653A003E00706757617665666F7286
:102DEA006D0077457857617665666F726D000000F1
:102DFA000000880425732E25733D256C64006765E1
:102E0A00742025732E25730025732E25733D2225E4
:102E1A0073220073656E646D6500626B636D643D59
:102E2A00310070616765203000726566203000727B
:102E3A00656620257300736C6565703D3100736C9F
:102E4A006565703D300064696D733D256400646991
:102E5A006D3D256400636C7320256C6400706963A2
:102E6A002025642C25642C25640070696371202553
:102E7A00642C25642C25642C25642C256400787325
:102E8A0074722025642C25642C25642C25642C2539
:102E9A00642C256C642C256C642C25642C25642CEC
:102EAA0025642C2573006C696E652025642C2564C5
:102EBA002C25642C25642C256C64006472617720AF
:102ECA0025642C25642C25642C25642C256C64002F
:102EDA0066696C6C2025642C25642C25642C256479
:102EEA002C256C64006369722025642C25642C25CA
:102EFA00642C256C64006765742064696D007061D8
:102F0A006765202573006164642025642C25642C80
:102F1A0025640070636F25640067646300676477E3
:102F2A00006764680002000000000006000000005C
:102F3A0000BF04B104AB04C504060000000000028F
:102F4A0000FCFF0000000000005009DA0FBD092F45
:102F5A0009A309A209000000006B0EDA0FC00DD9FF
:102F6A000DCB0D4A0E0D0A006E616E00696E660089
:062F7A006F7666002E00D8
:020000023000CC
:10E000000D9489F10D94B2F10D94B2F10D94B2F129
:10E010000D94B2F10D94B2F10D94B2F10D94B2F1F0
:10E020000D94B2F10D94B2F10D94B2F10D94B2F1E0
:10E030000D94B2F10D94B2F10D94B2F10D94B2F1D0
:10E040000D94B2F10D94B2F10D94B2F10D94B2F1C0
:10E050000D94B2F10D94B2F10D94B2F10D94B2F1B0
:10E060000D94B2F10D94B2F10D94B2F10D94B2F1A0
:10E070000D94B2F10D94B2F10D94B2F10D94B2F190
:10E080000D94B2F10D94B2F10D94B2F10D94B2F180
:10E090000D94B2F10D94B2F10D94B2F10D94B2F170
:10E0A0000D94B2F10D94B2F10D94B2F10D94B2F160
:10E0B0000D94B2F10D94B2F10D94B2F10D94B2F150
:10E0C0000D94B2F10D94B2F10D94B2F10D94B2F140
:10E0D0000D94B2F10D94B2F10D94B2F10D94B2F130
:10E0E0000D94B2F141546D656761323536300041AF
:10E0F000726475696E6F206578706C6F72657220DE
:10E1000073746B3530305632206279204D4C530099
:10E11000426F6F746C6F616465723E004875683F52
:10E1200000436F6D70696C6564206F6E203D200048
:10E130004350552054797065202020203D20005FF9
:10E140005F4156525F415243485F5F3D2000415658
:10E1500052204C696243205665723D20004743437C
:10E160002056657273696F6E203D20004350552024
:10E1700049442020202020203D20004C6F7720663D
:10E18000757365202020203D20004869676820665F
:10E190007573652020203D200045787420667573D6
:10E1A00065202020203D20004C6F636B2066757336
:10E1B000652020203D20004D617220203720323024
:10E1C000313300312E362E3800342E332E350056A2
:10E1D00023202020414444522020206F7020636F70
:10E1E00064652020202020696E73747275637469E1
:10E1F0006F6E2061646472202020496E74657272B3
:10E20000757074006E6F20766563746F7200726A49
:10E210006D702020006A6D70200057686174207056
:10E220006F72743A00506F7274206E6F7420737541
:10E2300070706F72746564004D7573742062652030
:10E2400061206C6574746572002000577269747483
:10E25000696E672045450052656164696E672045B7
:10E26000450045452065727220636E743D00504F35
:10E27000525400303D5A65726F2061646472003FF1
:10E280003D43505520737461747300403D454550C3
:10E29000524F4D207465737400423D426C696E6B41
:10E2A000204C454400453D44756D70204545505215
:10E2B0004F4D00463D44756D7020464C415348001B
:10E2C000483D48656C70004C3D4C69737420492F83
:10E2D0004F20506F72747300513D51756974005234
:10E2E0003D44756D702052414D00563D73686F7707
:10E2F00020696E7465727275707420566563746FF0
:10E30000727300593D506F727420626C696E6B00BD
:10E310002A0011241FBECFEFD1E2DEBFCDBF01E046
:10E320000CBF12E0A0E0B2E0EEE1FDEF03E00BBFB6
:10E3300002C007900D92A030B107D9F712E0A0E01B
:10E34000B2E001C01D92AE30B107E1F70F9460F367
:10E350000D948DFE01E20EBF0FEF0DBF11241FBE05
:10E360000D9460F30D9400F020E030E040ED57E0B4
:10E3700005C0FA013197F1F72F5F3F4F2817390792
:10E38000C0F308959C01260F311DC901A0E0B0E043
:10E390002F5F3F4FABBFFC018791882361F08093D3
:10E3A000C6008091C00086FFFCCF8091C0008064D1
:10E3B0008093C000EACF08958DE08093C6008091DD
:10E3C000C00086FFFCCF8091C00080648093C000B5
:10E3D0008AE08093C6008091C00086FFFCCF8091C8
:10E3E000C00080648093C00008950F94C2F10F9420
:10E3F000DCF10895FC019081992359F09093C600B7
:10E400008091C00086FFFCCF8091C0008064809323
:10E41000C0003196992379F70895282F982F929567
:10E420009F70892F805D8A3308F0895F8093C600D2
:10E430008091C00086FFFCCF8091C00080648093F3
:10E44000C000822F8F70982F905D9A3308F0995FEB
:10E450009093C6008091C00086FFFCCF8091C000E1
:10E4600080648093C00008959C01FB01853691056E
:10E470001CF46330710594F0C90164E670E00F94F8
:10E480002EFE605D7F4F6093C6008091C00086FFC6
:10E49000FCCF8091C00080648093C0002B30310598
:10E4A00014F43297B4F0C90164E670E00F942EFEC4
:10E4B0006AE070E00F942EFE605D7F4F6093C600AF
:10E4C0008091C00086FFFCCF8091C0008064809363
:10E4D000C000C9016AE070E00F942EFEC0968093E0
:10E4E000C6008091C00086FFFCCF8091C000806490
:10E4F0008093C00008951F93182F8EE692EE60E07F
:10E500000F94C2F11093C6008091C00086FFFCCF2B
:10E510008091C00080648093C0000F94DCF11F9153
:10E5200008952F923F924F925F926F927F928F92B7
:10E530009F92AF92BF92CF92DF92EF92FF920F9392
:10E540001F93DF93CF93CDB7DEB762970FB6F894E2
:10E55000DEBF0FBECDBF382E622ECA01DB015C01CB
:10E560006D01772420E2222E2E010894411C511CBB
:10E570008BC081E0A81680E0B80681E0C80680E084
:10E58000D80628F0C601AA27BB270F940DF2BB2797
:10E59000AD2D9C2D8B2D0F940DF28A2D0F940DF225
:10E5A0002092C6008091C00086FFFCCF8091C00001
:10E5B00080648093C0009DE29093C6008091C0006B
:10E5C00086FFFCCF8091C00080648093C0002092C1
:10E5D000C6008091C00086FFFCCF8091C00080649F
:10E5E0008093C00019828601750188249924A1E0D6
:10E5F0003A1651F03A1620F0B2E03B1661F409C029
:10E600000BBFF701779007C0C7010F9477FE782EF4
:10E6100002C0F7017080872D0F940DF22092C60082
:10E620008091C00086FFFCCF8091C0008064809301
:10E63000C000872D8052F401EF70F0708F3520F408
:10E64000E40DF51D708204C0E40DF51D8EE280839B
:10E650000894E11CF11C011D111D0894811C911CE2
:10E6600090E18916910409F0C2CF80E190E0A0E02A
:10E67000B0E0A80EB91ECA1EDB1E198AC2010F9493
:10E68000FAF10F94DCF16A94662009F072CF629679
:10E690000FB6F894DEBF0FBECDBFCF91DF911F91B3
:10E6A0000F91FF90EF90DF90CF90BF90AF909F9031
:10E6B0008F907F906F905F904F903F902F90089534
:10E6C0002F923F924F925F926F927F928F929F9282
:10E6D000AF92BF92CF92DF92EF92FF920F931F9370
:10E6E000DF93CF93CDB7DEB7CD53D1400FB6F894BB
:10E6F000DEBF0FBECDBF01E20EBF0FEF0DBF94B75F
:10E70000F894A89514BE80916000886180936000A1
:10E7100010926000789493FF05C0E0910002F091A0
:10E7200001021995279A2F9A8091C00082608093E8
:10E73000C00080E18093C40088E18093C1000000A4
:10E74000EE24FF24870144E0A42EB12CCC24DD2448
:10E7500024C0C5010197F1F70894E11CF11C011DCB
:10E76000111D21E2E2162EE4F20620E0020720E06D
:10E77000120718F031E0C32ED12CC801B70127ECE5
:10E780003BE140E050E00F9441FE611571058105C9
:10E79000910519F485B1805885B98091C00087FD35
:10E7A00003C0C114D104A9F2A6014F5F5F4FC25E3E
:10E7B000DE4F59834883CE51D140C25EDE4F8881FF
:10E7C0009981CE51D140019711F00D9410FEC05D9A
:10E7D000DE4F19821882C053D14060E0C15DDE4F28
:10E7E0001882CF52D14088249924C35DDE4F19820C
:10E7F0001882CD52D140C05EDE4F188219821A8233
:10E800001B82C052D140CE5CDE4F188219821A8220
:10E810001B82C253D140EE24FF2487010BBFF701B6
:10E8200007911691C45CDE4F19830883CC53D14005
:10E830000D940BFEC25EDE4F28813981CE51D1404E
:10E840002130310509F52091C600C25EDE4F1982E4
:10E850001882CE51D14022C02F5F3F4F4F4F5F4FA4
:10E86000213082E138078AE7480780E0580780F0C6
:10E87000C45CDE4FE881F981CC53D140EF5FFF4F9C
:10E8800019F0EE27FF27099420E030E040E050E047
:10E890008091C00087FFE0CF2091C600C35DDE4FAE
:10E8A00048815981CD52D1404F5F5F4FC35DDE4FEC
:10E8B00059834883CD52D140213209F063C64A3092
:10E8C000510508F05FC60894811C911C53E0851621
:10E8D000910409F059C600E010E018C081E280936D
:10E8E000C6008091C00086FFFCCF8091C00080648C
:10E8F0008093C0002F5F3F4F2931310579F70F9486
:10E90000DCF10F5F1F4F0530110519F020E030E0FA
:10E91000E5CF10920A0210920B0210920C02109294
:10E920000D02109206021092070210920802109235
:10E930000902109202021092030210920402109235
:10E9400005028FEE90EE60E00F94F5F180E191EE1C
:10E9500060E00F94C2F18091C00087FFFCCF9091DE
:10E96000C600903608F09F759032B8F09093C600BC
:10E970008091C00086FFFCCF8091C00080648093AE
:10E98000C000A0E2A093C6008091C00086FFFCCF2B
:10E990008091C00080648093C000983409F4D7C18E
:10E9A0009934B8F4923409F459C1933458F490333B
:10E9B00019F1903308F4E3C59F33A1F1903409F0C5
:10E9C000DEC5BDC0953409F470C1963409F0D7C5D1
:10E9D00098C1923509F42BC2933538F49C3409F46C
:10E9E000F5C1913509F0CBC518C2963509F445C279
:10E9F000993509F0C4C567C483E792EE62E00F94CD
:10EA0000F5F110920602109207021092080210927D
:10EA1000090210920A0210920B0210920C0210923C
:10EA20000D0213C18FE792EE62E00F94F5F18FEEC5
:10EA300090EE60E00F94F5F181E291EE60E00F94CA
:10EA4000C2F187EB91EE60E00F94F5F180E391EE77
:10EA500060E00F94C2F184EE90EE60E00F94F5F167
:10EA60008FE391EE60E00F94C2F186E090E061E008
:10EA700070E00F9434F20F94DCF18DE591EE60E0DC
:10EA80000F94C2F189EC91EE60E00F94F5F18EE401
:10EA900091EE60E00F94C2F183EC91EE60E00F9490
:10EAA000F5F18CE691EE60E00F94C2F18EE10F94E7
:10EAB0000DF288E90F940DF281E00F940DF20F949E
:10EAC000DCF18BE791EE60E00F94C2F119E0E0E039
:10EAD000F0E010935700E4918E2F0F940DF20F94F5
:10EAE000DCF18AE891EE60E00F94C2F1E3E0F0E03F
:10EAF00010935700E4918E2F0F940DF20F94DCF1D8
:10EB000089E991EE60E00F94C2F1E2E0F0E0109349
:10EB10005700E4918E2F0F940DF20F94DCF188EAE8
:10EB200091EE60E00F94C2F1E1E0F0E01093570045
:10EB30001491812F0F940DF20F94DCF107CF8BE825
:10EB400092EE62E00F94F5F18BE492EE60E00F94A8
:10EB5000F5F10F94DCF100E010E019C0C8016F2D51
:10EB60000F947FFEFF2031F489E492EE60E00F9471
:10EB7000C2F10BC0F092C6008091C00086FFFCCFAE
:10EB80008091C00080648093C0000F5F1F4FC80158
:10EB900081519F41A0E0B0E0ABBFFC01F790BAE229
:10EBA000FB1621F0E2E000301E07C1F60F94DCF105
:10EBB0000F94DCF187E592EE60E00F94F5F10F948D
:10EBC000DCF1CC24DD2400E010E01EC0C8010F946D
:10EBD00077FEF82E882331F489E492EE60E00F94FA
:10EBE000C2F10BC08093C6008091C00086FFFCCFAD
:10EBF0008091C00080648093C000FE1419F00894D6
:10EC0000C11CD11C0F5F1F4FC80181519F41A0E063
:10EC1000B0E0ABBFFC01E790FAE2EF1621F022E092
:10EC20000030120799F60F94DCF10F94DCF182E6C4
:10EC300092EE60E00F94C2F1C60161E070E00F94C3
:10EC400034F20F94DCF10F94DCF110920202109276
:10EC50000302109204021092050278CE89E992EE26
:10EC600062E00F94F5F1279A2F9A16C02F9880E052
:10EC700090E0E0EDF7E03197F1F7019684369105E9
:10EC8000C1F72F9A80E090E0E0EDF7E03197F1F7DF
:10EC9000019684369105C1F78091C00087FFE6CFC9
:10ECA0008091C00087FFFCCF64C485EA92EE62E0E9
:10ECB0000F94F5F140910202509103026091040219
:10ECC0007091050281E020E10F9491F2809102029F
:10ECD00090910302A0910402B091050280509F4FD1
:10ECE000AF4FBF4F8093020290930302A0930402A0
:10ECF000B093050280509041A040B04008F426CE69
:10ED0000A4CF83EB92EE62E00F94F5F140910602FE
:10ED100050910702609108027091090280E020E1A1
:10ED20000F9491F28091060290910702A09108023F
:10ED3000B091090280509F4FAF4FBF4F80930602A2
:10ED400090930702A0930802B0930902FFCD80ECD4
:10ED500092EE62E00F94F5F183E792EE60E00F949B
:10ED6000F5F18FE792EE60E00F94F5F18BE892EE0B
:10ED700060E00F94F5F189E992EE60E00F94F5F10F
:10ED800085EA92EE60E00F94F5F183EB92EE60E09D
:10ED90000F94F5F180EC92EE60E00F94F5F187ECC2
:10EDA00092EE60E00F94F5F188ED92EE60E00F9442
:10EDB000F5F18FED92EE60E00F94F5F18AEE92EEB0
:10EDC00060E00F94F5F183E093EEBDCD87EC92EE19
:10EDD00062E00F94F5F181E40F947BF282E40F94EA
:10EDE0007BF283E40F947BF284E40F947BF285E45E
:10EDF0000F947BF286E40F947BF287E40F947BF20E
:10EE000088E40F947BF28AE40F947BF28BE40F94F6
:10EE10007BF28CE40F947BF299CD88ED92EE62E068
:10EE20000F94F5F1772473948824992409C48FED05
:10EE300092EE62E00F94F5F140910A0250910B02BC
:10EE400060910C0270910D0282E020E10F9491F22A
:10EE500080910A0290910B02A0910C02B0910D02D8
:10EE600080509F4FAF4FBF4F80930A0290930B0289
:10EE7000A0930C02B0930D0269CD8AEE92EE62E08F
:10EE80000F94F5F184EE90EE60E00F94F5F18FECC5
:10EE900091EE60E00F94F5F1662477244301CC5D98
:10EEA000DE4F19821882C452D140D401C301B695F5
:10EEB000A79597958795CA5DDE4F88839983AA8326
:10EEC000BB83C652D140CC5DDE4FA881B981C4520C
:10EED000D1401196CC5DDE4FB983A883C452D14096
:10EEE000CD0162E070E00F9434F2B0E2B093C6005E
:10EEF0008091C00086FFFCCF8091C0008064809329
:10EF0000C000EDE2E093C6008091C00086FFFCCF18
:10EF10008091C00080648093C000F0E2F093C6004E
:10EF20008091C00086FFFCCF8091C00080648093F8
:10EF3000C000CA5DDE4FE880F9800A811B81C6529D
:10EF4000D140BB27A12F902F8F2D0F940DF2CA5DBA
:10EF5000DE4F8881C652D1400F940DF2B0E2FB2EF5
:10EF6000F092C6008091C00086FFFCCF8091C00067
:10EF700080648093C0000DE30093C6008091C000C0
:10EF800086FFFCCF8091C00080648093C00010E2B7
:10EF90001093C6008091C00086FFFCCF8091C00016
:10EFA00080648093C0008BBEF3012791C65DDE4F65
:10EFB0002883CA52D140A22EBB24CC24DD2408943D
:10EFC000611C711C811C911C8BBEF3018791282E42
:10EFD0003324442455240894611C711C811C911C09
:10EFE0008BBEF3013791C55DDE4F3883CB52D140E4
:10EFF0000894611C711C811C911C8BBEF30147910C
:10F00000C45DDE4F4883CC52D140ADEFEA2EAFEF66
:10F01000FA2EAFEF0A2FAFEF1A2F6E0C7F1C801E57
:10F02000911E142D032DF22CEE24EA0CFB1C0C1D5A
:10F030001D1D0F940DF220E22093C6008091C000A8
:10F0400086FFFCCF8091C00080648093C000C65DC5
:10F05000DE4F8881CA52D1400F940DF230E23093D6
:10F06000C6008091C00086FFFCCF8091C000806404
:10F070008093C000C45DDE4F8881CC52D1400F9494
:10F080000DF240E24093C6008091C00086FFFCCFA5
:10F090008091C00080648093C000C55DDE4F888190
:10F0A000CB52D1400F940DF250E25093C6008091A4
:10F0B000C00086FFFCCF8091C00080648093C000B8
:10F0C0008FEFE8168FEFF80680E0080780E018075A
:10F0D00031F484E092EE60E00F94C2F1DFC0D80119
:10F0E000C7018070907CA070B0708050904CA040A0
:10F0F000B040D1F52FEF3FE340E050E0E222F322B1
:10F1000004231523CA5DDE4FA880B980CA80DB8046
:10F11000C652D140AE0CBF1CC01ED11EAA0CBB1CD7
:10F12000CC1CDD1C8EE092EE60E00F94C2F1BB2798
:10F13000A12F902F8F2D0F940DF28E2D0F940DF285
:10F1400030E23093C6008091C00086FFFCCF8091F2
:10F15000C00080648093C0004EE34093C60080915D
:10F16000C00086FFFCCF87C08EE09EEFA0E0B0E03D
:10F17000E822F9220A231B239CE0E91694E9F90608
:10F1800090E0090790E0190709F088C0C45DDE4FE0
:10F19000A881CC52D140EA2EFF2400E010E0102FCD
:10F1A0000F2DFE2CEE24C55DDE4FB881CB52D14031
:10F1B000EB0EF11C011D111DD601C501817090706F
:10F1C000A070B070DC0199278827E80EF91E0A1F8D
:10F1D0001B1F20EF30E040E050E0A222B322C42207
:10F1E000D52241E1AA0CBB1CCC1CDD1C4A95D1F7F1
:10F1F000EA0CFB1C0C1D1D1D81E090E0A0E0B0E0BE
:10F20000282239224A225B2235E1220C331C441C7D
:10F21000551C3A95D1F7E20CF31C041D151D57013E
:10F220006801AA0CBB1CCC1CDD1C85E192EE60E0E1
:10F230000F94C2F1C801AA27BB270F940DF2BB2778
:10F24000A12F902F8F2D0F940DF28E2D0F940DF274
:10F2500090E29093C6008091C00086FFFCCF809121
:10F26000C00080648093C000AEE3A093C60080918C
:10F27000C00086FFFCCF8091C00080648093C000F6
:10F28000C601AA27BB270F940DF2BB27AD2D9C2DDD
:10F290008B2D0F940DF28A2D0F940DF20F94DCF14B
:10F2A000CC5DDE4FE881F981C452D140F99709F471
:10F2B0004DCBF4E0EF2EF12C012D112D6E0C7F1CA7
:10F2C000801E911EF2CD83E093EE62E00F94F5F183
:10F2D0008AE192EE60E00F94C2F18091C00087FF56
:10F2E000FCCF1091C6001F751093C6008091C0001E
:10F2F00086FFFCCF8091C00080648093C0000F9493
:10F30000DCF1812F81548A3108F036C1163409F4BA
:10F3100095C0173490F4133409F44EC0143430F40B
:10F320001134F1F0123409F01DC130C0143409F465
:10F3300059C0153409F016C16BC01A3409F4C4C0A1
:10F340001B3438F4173409F48FC0183409F00AC19B
:10F35000A1C01B3409F4D2C01C3409F003C1E8C0B9
:10F360008FEF81B90DC082B1809582B980E090E0C5
:10F37000E0EDF7E03197F1F70196883C9105C1F790
:10F380008091C00087FFEFCF12B8EFC08FEF84B934
:10F390000DC085B1809585B980E090E0E0EDF7E0A3
:10F3A0003197F1F70196883C9105C1F78091C00033
:10F3B00087FFEFCF15B8D9C08FEF87B90DC088B1DF
:10F3C000809588B980E090E0E0EDF7E03197F1F7C3
:10F3D0000196883C9105C1F78091C00087FFEFCF6F
:10F3E00018B8C3C08FEF8AB90DC08BB180958BB9A7
:10F3F00080E090E0E0EDF7E03197F1F70196883C8E
:10F400009105C1F78091C00087FFEFCF1BB8ADC059
:10F410008FEF8DB90DC08EB180958EB980E090E0F0
:10F42000E0EDF7E03197F1F70196883C9105C1F7DF
:10F430008091C00087FFEFCF1EB897C08FEF80BBD1
:10F440000DC081B3809581BB80E090E0E0EDF7E0F6
:10F450003197F1F70196883C9105C1F78091C00082
:10F4600087FFEFCF11BA81C08FEF83BB0DC084B38C
:10F47000809584BB80E090E0E0EDF7E03197F1F714
:10F480000196883C9105C1F78091C00087FFEFCFBE
:10F4900014BA6BC08FEF809301010FC080910201FD
:10F4A00080958093020180E090E0E0EDF7E03197F5
:10F4B000F1F70196883C9105C1F78091C00087FF64
:10F4C000EDCF1092020151C08FEF809304010FC065
:10F4D0008091050180958093050180E090E0E0ED4A
:10F4E000F7E03197F1F70196883C9105C1F78091DB
:10F4F000C00087FFEDCF1092050137C08FEF8093DA
:10F5000007010FC08091080180958093080180E079
:10F5100090E0E0EDF7E03197F1F70196883C910536
:10F52000C1F78091C00087FFEDCF109208011DC088
:10F530008FEF80930A010FC080910B01809580931B
:10F540000B0180E090E0E0EDF7E03197F1F70196F4
:10F55000883C9105C1F78091C00087FFEDCF1092E4
:10F560000B0103C085E292EEEEC98091C00087FFD7
:10F57000FCCF8091C600EAC988E392EEE4C98CE131
:10F5800091EEE1C988249924933011F1943028F444
:10F59000913089F09230B8F408C0953061F195301F
:10F5A000F0F0963009F048C043C02B3109F042C951
:10F5B00091E06BE13FC96227C15DDE4F2883CF52E6
:10F5C000D14092E037C9B22FA0E0622793E032C960
:10F5D000822F90E0A82BB92B622794E02BC92E3004
:10F5E00009F039C3622795E0C05DDE4F19821882A9
:10F5F000C053D1401FC9E1E0F0E0EC0FFD1FC05D3A
:10F60000DE4F08811981C053D140E00FF11F2083E4
:10F610000F5F1F4FC05DDE4F19830883C053D14079
:10F6200062270A171B0709F005C9D80196E002C92D
:10F63000261709F010C303C0973009F0FBC87724E0
:10F640009981933109F412C19431C8F4963009F4C8
:10F65000D8C0973050F4923009F406C1933009F4C1
:10F660006DC0913009F059C253C0913109F477C08F
:10F67000923108F0BBC0903109F04FC2F5C098310B
:10F6800009F487C0993150F4953109F4EFC09531F0
:10F6900008F4C6C1963109F040C2C2C19A3109F4DA
:10F6A0006CC09A3108F491C09B3109F45BC09D3164
:10F6B00009F033C29D81903359F48F81882311F46E
:10F6C0009EE11CC0813011F091E018C098E916C08D
:10F6D000892F807591F0903539F4E0E0F0E089E011
:10F6E0008093570094910AC0983539F4E3E0F0E034
:10F6F00089E080935700949101C090E01A821B82A8
:10F700008D818C831D829E831F8227E030E009C299
:10F710001A8288E08B8381E48C8386E58D8382E581
:10F720008E8389E48F8383E5888780E589878FE5E9
:10F730008A8782E38B872BE030E0F3C18A818139AD
:10F7400041F0823941F0803911F48FE005C080E04A
:10F7500003C082E001C08AE01A828B8344C0772410
:10F76000739482C08D81882311F48EE12CC0813086
:10F7700011F081E028C088E926C01A82E1E0F0E0BB
:10F7800089E08093570084918B831C8224E030E0D1
:10F79000C8C18B81803589F48C81883039F4E2E0EE
:10F7A000F0E089E08093570084910DC0E0E0F0E044
:10F7B00089E080935700849106C0E3E0F0E089E09F
:10F7C0008093570084911A82DFCF8D81836C99E0FA
:10F7D000E1E0F0E0082E90935700E89507B600FCB2
:10F7E000FDCF1A821B8223E030E09BC180EC8A832C
:10F7F000CE5CDE4F188219821A821B82C253D1401E
:10F800008EC18A8190E0A0E0B0E0582F44273327D2
:10F8100022278B8190E0A0E0B0E0DC0199278827C7
:10F82000282B392B4A2B5B2B8D8190E0A0E0B0E098
:10F83000282B392B4A2B5B2B8C8190E0A0E0B0E089
:10F84000BA2FA92F982F8827282B392B4A2B5B2BCF
:10F85000220F331F441F551FC05EDE4F288339839C
:10F860004A835B83C052D1401A8259C13A81C95C34
:10F87000DE4F3883C753D140CA5CDE4F1882C6536F
:10F88000D1408B81C82EDD24CA5CDE4F488159816E
:10F89000C653D140C42AD52A933109F082C0CE5C28
:10F8A000DE4F88819981AA81BB81C253D1408050AB
:10F8B000904CA340B04030F583E0CE5CDE4FE88052
:10F8C000F9800A811B81C253D140F70100935B008C
:10F8D00080935700E89507B600FCFDCFCE5CDE4F65
:10F8E000088119812A813B81C253D14000501F4FAA
:10F8F0002F4F3F4FCE5CDE4F088319832A833B8313
:10F90000C253D140C05EDE4F488159816A817B81FC
:10F91000C052D140DE011B9631E08C9111962C91A2
:10F9200011971296C75CDE4F2883C953D140C85C3B
:10F93000DE4F1882C853D14090E0C85CDE4FE881AA
:10F94000F981C853D1408E2B9F2B0C01FA01609393
:10F950005B0030935700E89511244E5F5F4F6F4F67
:10F960007F4F0EEFE02E0FEFF02ECE0CDF1CC114F8
:10F97000D10499F685E0C05EDE4F088119812A81A5
:10F980003B81C052D140F80120935B008093570027
:10F99000E89507B600FCFDCF81E180935700E8951C
:10F9A00035C0C05EDE4F88819981AA81BB81C0527B
:10F9B000D140B695A795979587957C018601ABE0D8
:10F9C000AA2EB12CAC0EBD1E0BC0D5016D915D01F0
:10F9D000C7010F947FFE0894E11CF11C01501040F8
:10F9E0000115110591F7A60160E070E0440F551F65
:10F9F000661F771FC05EDE4FE880F9800A811B8199
:10FA0000C052D1404E0D5F1D601F711F1A82C05E33
:10FA1000DE4F488359836A837B83C052D1407FC0C5
:10FA2000FA80C55CDE4FF882CB53D140C65CDE4F16
:10FA30001882CA53D1408B81C82EDD24C65CDE4FAC
:10FA400008811981CA53D140C02AD12A1A828981DA
:10FA5000BE016D5F7F4F843121F59601C05EDE4FA0
:10FA6000E880F9800A811B81C052D1400BBFF701A9
:10FA700087919691DB018C9311969C936E5F7F4FDB
:10FA8000D801C7010296A11DB11DC05EDE4F88835B
:10FA90009983AA83BB83C052D14022503040F1F6F3
:10FAA00036C0C05EDE4F288139814A815B81C052F9
:10FAB000D1400894C108D108760100E010E0089414
:10FAC000C11CD11C0894E11CF11C011D111DE20E8A
:10FAD000F31E041F151F21BDBB27A52F942F832FB5
:10FAE00082BD2F5F3F4F4F4F5F4FF89A80B5DB01CC
:10FAF0008D93BD012E153F054007510761F7C05E8C
:10FB0000DE4F288339834A835B83C052D1409601FC
:10FB10002D5F3F4FFB01108204C080EC8A8322E0FE
:10FB200030E08BE18093C6008091C00086FFFCCF5F
:10FB30008091C00080648093C000C15DDE4FF88179
:10FB4000CF52D140F093C6008091C00086FFFCCF19
:10FB50008091C00080648093C000432F3093C60022
:10FB60008091C00086FFFCCF8091C00080648093AC
:10FB7000C000922F2093C6008091C00086FFFCCF6A
:10FB80008091C00080648093C0008EE08093C600A6
:10FB90008091C00086FFFCCF8091C000806480937C
:10FBA000C00065E1C15DDE4FE880CF52D1406E25D7
:10FBB00069276427FE01319610C090819093C6009A
:10FBC0008091C00086FFFCCF31968091C000806498
:10FBD0008093C0006927215030402115310569F715
:10FBE0006093C6008091C00086FFFCCF8091C0006A
:10FBF00080648093C00085B1805885B9772081F4F6
:10FC0000C15DDE4F0881CF52D1400F5FC15DDE4F35
:10FC10000883CF52D14090E0A0E0B0E00D941AF4F8
:10FC200027982F9880E090E020ED37E0F901319798
:10FC3000F1F7019684369105C9F700008091C00064
:10FC40008D7F8093C00081E180935700E895EE2777
:10FC5000FF270994FFCF90E00D941AF497FB092E2B
:10FC600007260AD077FD04D02ED006D000201AF443
:10FC7000709561957F4F0895F6F7909581959F4F08
:10FC80000895A1E21A2EAA1BBB1BFD010DC0AA1FDD
:10FC9000BB1FEE1FFF1FA217B307E407F50720F0F5
:10FCA000A21BB30BE40BF50B661F771F881F991F70
:10FCB0001A9469F760957095809590959B01AC01B9
:10FCC000BD01CF010895AA1BBB1B51E107C0AA1FAC
:10FCD000BB1FA617B70710F0A61BB70B881F991FED
:10FCE0005A95A9F780959095BC01CD010895F99991
:10FCF000FECF92BD81BDF89A992780B50895262F31
:10FD0000F999FECF1FBA92BD81BD20BD0FB6F89400
:0EFD1000FA9AF99A0FBE01960895F894FFCF63
:040000033000E000E9
:00000001FF
